:020000040800F2
:1000000000280020891A0008791900087F190008C3
:10001000851900088B1900089119000800000000DC
:100020000000000000000000000000009719000818
:10003000A319000800000000AF190008BB19000850
:10004000D11A0008D11A0008D11A0008D11A0008E4
:10005000D11A0008D11A0008D11A0008D11A0008D4
:10006000D11A0008D11A0008D11A0008D11A0008C4
:10007000D11A0008D11A0008D11A0008D11A0008B4
:10008000D11A0008D11A0008D11A0008D11A0008A4
:10009000D11A0008D11A0008D11A0008D11A000894
:1000A000D11A0008D11A0008D11A0008D11A000884
:1000B000C9190008D11A000800000000D11A000870
:1000C000D11A00080000000000000000D11A00084A
:1000D00000000000D11A0008D11A0008000000003A
:1000E000D11A0008D11A0008D11A00080000000037
:1000F0000000000000000000000000000000000000
:0C01000000000000000000005FF808F1A3
:1001100010B5054C237833B9044B13B10448AFF341
:1001200000800123237010BD740000200000000037
:100130000032000808B5034B1BB103490348AFF375
:10014000008008BD00000000780000200032000898
:1001500070B54FF0FF0C4CF4E06C1CEA11541DBF5D
:100160001CEA135594EA0C0F95EA0C0F00F0DEF828
:100170002C4481EA030621EA4C5123EA4C5350EA0D
:10018000013518BF52EA033541F4801143F480135E
:1001900038D0A0FB02CE4FF00005E1FB02E506F0EF
:1001A0000042E0FB03E54FF00006E1FB03569CF044
:1001B000000F18BF4EF0010EA4F1FF04B6F5007F4A
:1001C00064F5407404D25FEA4E0E6D4146EB0606BC
:1001D00042EAC62141EA55514FEAC52040EA5E5045
:1001E0004FEACE2EB4F1FD0C88BFBCF5E06F1ED8EF
:1001F000BEF1004F08BF5FEA500E50F1000041EB26
:10020000045170BD06F0004646EA010140EA0200D2
:1002100081EA0301B4EB5C04C2BFD4EB0C0541EAF4
:10022000045170BD41F480114FF0000E013C00F309
:10023000AB8014F1360FDEBF002001F0004170BD2D
:10024000C4F10004203C35DA0C341BDC04F1140446
:10025000C4F1200500FA05F320FA04F001FA05F2D2
:1002600040EA020001F0004221F0004110EBD3709F
:1002700021FA04F642EB06015EEA430E08BF20EACB
:10028000D37070BDC4F10C04C4F1200500FA04F36E
:1002900020FA05F001FA04F240EA020001F0004100
:1002A00010EBD37041F100015EEA430E08BF20EA73
:1002B000D37070BDC4F1200500FA05F24EEA020EBB
:1002C00020FA04F301FA05F243EA020321FA04F0EA
:1002D00001F0004121FA04F220EA020000EBD370A1
:1002E0005EEA430E08BF20EAD37070BD94F0000FA1
:1002F0000FD101F00046400041EB010111F4801FD5
:1003000008BF013CF7D041EA060195F0000F18BF85
:10031000704703F00046520043EB030313F4801FC1
:1003200008BF013DF7D043EA0603704794EA0C0F7B
:100330000CEA135518BF95EA0C0F0CD050EA410691
:1003400018BF52EA4306D1D181EA030101F000410E
:100350004FF0000070BD50EA410606BF1046194636
:1003600052EA430619D094EA0C0F02D150EA013642
:1003700013D195EA0C0F05D152EA03361CBF104683
:1003800019460AD181EA030101F0004141F0FE4122
:1003900041F470014FF0000070BD41F0FE4141F4A6
:1003A000780170BD81F0004102E000BF83F000439E
:1003B00030B54FEA41044FEA430594EA050F08BF00
:1003C00090EA020F1FBF54EA000C55EA020C7FEAC4
:1003D000645C7FEA655C00F0E2804FEA5454D4EB41
:1003E0005555B8BF6D420CDD2C4480EA020281EA0B
:1003F000030382EA000083EA010180EA020281EA43
:100400000303362D88BF30BD11F0004F4FEA013194
:100410004FF4801C4CEA113102D0404261EB4101A3
:1004200013F0004F4FEA03334CEA133302D0524229
:1004300063EB430394EA050F00F0A780A4F10104E5
:10044000D5F1200E0DDB02FA0EFC22FA05F280181F
:1004500041F1000103FA0EF2801843FA05F3594105
:100460000EE0A5F120050EF1200E012A03FA0EFC84
:1004700028BF4CF0020C43FA05F3C01851EBE371AE
:1004800001F0004507D54FF0000EDCF1000C7EEBCB
:1004900000006EEB0101B1F5801F1BD3B1F5001F09
:1004A0000CD349085FEA30004FEA3C0C04F1010428
:1004B0004FEA445212F5800F80F09A80BCF1004F51
:1004C00008BF5FEA500C50F1000041EB045141EAD3
:1004D000050130BD5FEA4C0C404141EB0101013C9C
:1004E00028BFB1F5801FE9D291F0000F04BF01468B
:1004F0000020B1FA81F308BF2033A3F10B03B3F15D
:1005000020020CDA0C3208DD02F1140CC2F10C02EC
:1005100001FA0CF021FA02F10CE002F11402D8BF4A
:10052000C2F1200C01FA02F120FA0CFCDCBF41EA16
:100530000C019040E41AA2BF01EB0451294330BDE5
:100540006FEA04041F3C1CDA0C340EDC04F11404C2
:10055000C4F1200220FA04F001FA02F340EA030099
:1005600021FA04F345EA030130BDC4F10C04C4F1DF
:10057000200220FA02F001FA04F340EA03002946BF
:1005800030BD21FA04F0294630BD94F0000F83F409
:10059000801306BF81F480110134013D4EE77FEAEC
:1005A000645C18BF7FEA655C29D094EA050F08BF38
:1005B00090EA020F05D054EA000C04BF1946104619
:1005C00030BD91EA030F1EBF0021002030BD5FEA5D
:1005D000545C05D14000494128BF41F0004130BD85
:1005E00014F580043CBF01F5801130BD01F00045D9
:1005F00045F0FE4141F470014FF0000030BD7FEA4C
:10060000645C1ABF194610467FEA655C1CBF0B4646
:10061000024650EA013406BF52EA033591EA030F5D
:1006200041F4002130BD00BF90F0000F04BF002155
:10063000704730B54FF4806404F132044FF0000588
:100640004FF0000150E700BF90F0000F04BF002101
:10065000704730B54FF4806404F1320410F0004567
:1006600048BF40424FF000013EE700BF42004FEA62
:10067000E2014FEA31014FEA02701FBF12F07F43DF
:1006800093F07F4F81F06051704732F07F4208BF96
:10069000704793F07F4F04BF41F40021704730B59D
:1006A0004FF4607401F0004521F000411CE700BFE9
:1006B00050EA010208BF704730B54FF000050AE06C
:1006C00050EA010208BF704730B511F0004502D56D
:1006D000404261EB41014FF4806404F132045FEA6F
:1006E000915C3FF4D8AE4FF003025FEADC0C18BF18
:1006F00003325FEADC0C18BF033202EBDC02C2F10A
:10070000200300FA03FC20FA02F001FA03FE40EA9B
:100710000E0021FA02F11444BDE600BF4FF0FF3C89
:1007200006E000BF4FF0010C02E000BF4FF0010CEB
:100730004DF804CD4FEA410C7FEA6C5C4FEA430C64
:1007400018BF7FEA6C5C1BD001B050EA410C0CBFB3
:1007500052EA430C91EA030F02BF90EA020F002015
:10076000704710F1000F91EA030F58BF994208BF7C
:1007700090422CBFD8176FEAE37040F00100704739
:100780004FEA410C7FEA6C5C02D150EA013C07D190
:100790004FEA430C7FEA6C5CD6D152EA033CD3D0DB
:1007A0005DF8040B704700BF8446104662468C46D5
:1007B0001946634600E000BF01B5FFF7B7FF002808
:1007C00048BF10F1000F01BD4DF808EDFFF7F4FF31
:1007D0000CBF012000205DF808FB00BF4DF808EDBC
:1007E000FFF7EAFF34BF012000205DF808FB00BFDF
:1007F0004DF808EDFFF7E0FF94BF012000205DF801
:1008000008FB00BF4DF808EDFFF7CEFF94BF0120B5
:1008100000205DF808FB00BF4DF808EDFFF7C4FFAE
:1008200034BF012000205DF808FB00BF4FEA410201
:1008300012F5001215D211D56FF47873B3EB625232
:1008400012D94FEAC12343F0004343EA505311F059
:10085000004F23FA02F018BF404270474FF00000EB
:10086000704750EA013005D111F0004008BF6FF029
:10087000004070474FF00000704700BF80B584B063
:1008800000AF786039607B68002B02DB7B68092B46
:1008900001DD00237B600023FB6019E0FB685B0047
:1008A0003A68134419880E487A681346DB009B1A8D
:1008B000C218FB6813441B78002B14BF01230023CC
:1008C000DBB21A46074801F006FCFB680133FB6007
:1008D000FB68062BE2DD00BF00BF1037BD4680BDC0
:1008E00018320008000C014080B483B000AF78607B
:1008F0003960054A7B681360044A3B68136000BF97
:100900000C37BD4680BC704790000020940000204A
:1009100080B584B000AF334B1B68334A82FB0312AF
:100920009210DB17D31AFB602E4B1A682E4B83FBF9
:1009300002139910D317C91A0B469B000B445B0096
:10094000D31ABB60294B1B68274A82FB0312921003
:10095000DB17D31A7B60254B1A68234B83FB0213EA
:100960009910D317C91A0B469B000B445B00D31A8E
:100970003B601F4B1B68012B13D1002210211D4827
:1009800001F0A9FB00224FF400711A4801F0A3FB0B
:100990001949F868FFF772FF18497868FFF76EFF8A
:1009A00016E0134B1B68002B12D1012210211148B5
:1009B00001F091FB01224FF400710E4801F08BFB16
:1009C0000D49B868FFF75AFF0C493868FFF756FF22
:1009D000074B1B68C3F10103054A136000BF1037C2
:1009E000BD4680BD900000206766666694000020CA
:1009F00098000020000801400000002010000020A6
:100A000080B483B000AF7860094A7B6852F8233025
:100A1000012B06D1064A7B68002142F823100123EE
:100A200000E0002318460C37BD4680BC704700BF6D
:100A3000A800002080B500AF0020FFF7E1FF0346CB
:100A4000184680BD80B500AF0120FFF7D9FF0346EF
:100A5000184680BD80B500AF0220FFF7D1FF0346E6
:100A6000184680BD80B582B000AF00237B606DE08A
:100A70003A4A7B6852F8232039497B6841F82320A1
:100A8000384A7B6852F8232034497B6841F8232098
:100A9000354B1A6835497B6831F8133019461046D2
:100AA00001F002FB034619462E4A7B6842F82310E8
:100AB0002B4A7B6852F8232028497B6851F8233061
:100AC0009A4240D1254A7B6852F8232025497B6809
:100AD00051F823309A4236D1254A7B6852F82320B8
:100AE00020497B6851F823309A4218D01D4A7B6810
:100AF00052F823201E497B6841F82320194A7B685D
:100B000052F82330002B1ED11A4A7B68012142F88B
:100B10002310194A7B68C82142F8231013E0164AB3
:100B20007B6852F823305A1E13497B6841F8232012
:100B3000114A7B6852F82330002B04D10E4A7B689F
:100B4000C82142F823107B6801337B607B68022B4D
:100B50008EDD00BF00BF0837BD4680BD2C000020E1
:100B60002000002038000020500000205400002009
:100B700044000020A80000209C00002080B500AFA9
:100B8000094B00221A60094B1B68094A1360074B86
:100B90005B68084A136000F0F1F94FF47A710020A5
:100BA00000F022FF00BF80BDB40000205C000020E8
:100BB000B8000020BC00002080B500AF3E4B1B6891
:100BC000012B0ED14FF47A71002000F00DFF3B4B4A
:100BD0001B68013B394A1360394B1B68013B384A9B
:100BE0001360364B1B68364A126811461846FFF7E9
:100BF0007BFE344B1B68032B51D801A252F823F023
:100C0000110C00082D0C0008510C00086D0C000898
:100C10002B4B1B68002B3BDC2A4B01221A602A4B12
:100C20009B68274A136000F0BDF931E0244B1B6834
:100C3000002B2FDC234B02221A60234B5B681F4AD8
:100C40001360214B1B681E4A136000F0BDF921E0C0
:100C50001A4B1B68002B1FDC1A4B03221A601A4B1D
:100C60009B68164A136000F0C1F915E0134B1B682E
:100C7000002B13DC134B00221A60134B1B680F4A26
:100C80001360114B5B680E4A136000F077F905E0C2
:100C900000BF04E000BF02E000BF00E000BFFFF7BC
:100CA000C9FE0346002B04D0084B02221A6000F054
:100CB0000FF800BF80BD00BF24020020B800002054
:100CC000BC000020B40000205C000020C400002014
:100CD00080B500AF00F02CF94FF4FA71012000F05C
:100CE00083FE0E4B1B68042B10D0042B13DC022B4D
:100CF00002D0032B05D00EE0094B1B68094A136094
:100D00000AE0074B5B68074A136005E0044B9B68E9
:100D1000044A136000E000BF00BF80BDC400002093
:100D20005C000020C000002080B500AF474B5B682E
:100D3000012B18D14FF4FA71012000F055FE444BFD
:100D40001B68042B0CD0042B0EDC022B02D0032BCF
:100D500003D009E000F05CF906E000F067F903E079
:100D600000F074F900E000BF394B1B68394A126883
:100D700011461846FFF7B8FDFFF764FE0346002B47
:100D80000BD0344B1B680133324A1360314B1B6864
:100D9000632B02DD2F4B01221A60FFF75BFE034637
:100DA000002B2AD02A4B1B68042B1AD0042B25DCDD
:100DB000022B02D0032B0AD020E0264B1B68264AC8
:100DC0001360234B03221A60FFF782FF16E0214BCA
:100DD0001B68214A53601E4B04221A60FFF778FFFC
:100DE0000CE01C4B1B681C4A936000F039F8184B50
:100DF00001221A60FFF7C2FE00E000BFFFF71AFEF3
:100E00000346002B1ED0124B1B68042B12D0042B60
:100E100019DC022B02D0032B06D014E00C4B03226A
:100E20001A60FFF755FF0EE0094B04221A60FFF726
:100E30004FFF08E0064B01221A6000F011F8FFF79F
:100E40009DFE00E000BF00BF80BD00BF2402002067
:100E5000C4000020C00000205C0000200000000052
:100E600080B500AF204B1A681F4B59681E4B9B681A
:100E70000B449A4207DA1C4B5A681B4B9B6813447D
:100E8000194A136028E0184B1A68174B5968164B1B
:100E90009B680B449A421FDD134B1B681846FFF7F3
:100EA000D3FB0FA3D3E90023FFF752F902460B4609
:100EB0001046194602F024F902460B461046194620
:100EC000FFF7B4FC0346084A5360074B1A68064B09
:100ED0005B68D31A044A936000BF80BDAFF3008003
:100EE000666666666666E63F5C00002080B500AF19
:100EF0000E4B1B68042B12DC022B0DDA002B02D0E8
:100F0000012B06D00BE0094B01221A60FFF736FED9
:100F100009E0FFF751FE06E0FFF706FF03E0034B91
:100F200000221A6000BF00BF80BD00BFC4000020C7
:100F300080B500AF002202210F4801F0CCF800225A
:100F400008210D4801F0C7F8002204210A4801F0E9
:100F5000C2F800224021084801F0BDF800224FF4F9
:100F60008071054801F0B7F800228021024801F0A5
:100F7000B2F800BF80BD00BF0008014080B500AFDF
:100F8000FFF7D6FF01220221054801F0A4F8012253
:100F90004FF48071024801F09EF800BF80BD00BF91
:100FA0000008014080B500AFFFF7C2FF0122022117
:100FB000044801F090F801228021024801F08BF8EA
:100FC00000BF80BD0008014080B500AFFFF7B0FF53
:100FD00001220821044801F07EF801224021024844
:100FE00001F079F800BF80BD0008014080B500AF76
:100FF000FFF79EFF01220421044801F06CF8012252
:101000004021024801F067F800BF80BD00080140A0
:1010100080B500AF0221044801F075F84021024874
:1010200001F071F800BF80BD0008014080B500AF3D
:101030000821054801F067F84FF48071024801F07B
:1010400062F800BF80BD00BF0008014080B500AF5E
:101050000421044801F057F88021024801F053F8B8
:1010600000BF80BD0008014080B500AF20210248CC
:1010700001F049F800BF80BD0008014080B500AF15
:1010800000F028FD00F032F800F0B8F800F06AF83F
:1010900000F014FA012200210E4800F04FFA01225C
:1010A00001210D4800F04AFA012202210B4800F00C
:1010B00045FA042203210A4800F040FA6422032181
:1010C000084800F03BFA084801F062FC00F0B2FB6F
:1010D000FCE700BF291A0008650A0008ED0E0008A9
:1010E0001109000869100008CC00002080B590B0FC
:1010F00000AF07F1180328220021184601F0F8FF7D
:101100003B1D00221A605A609A60DA601A6102235D
:10111000BB610123BB621023FB6200237B6307F1E9
:101120001803184601F008F80346002B01D000F020
:10113000D3F80F237B600023BB600023FB600023F8
:101140003B6100237B613B1D0021184601F074FACE
:101150000346002B01D000F0BFF800BF4037BD466A
:1011600080BD000080B586B000AF07F10803002203
:101170001A605A609A60DA603B4600221A605A6030
:101180001D4B4FF080421A601B4B41F63F725A6074
:10119000194B00229A60184B0922DA60164B002284
:1011A0001A61154B00229A61134801F0A1FB034616
:1011B000002B01D000F090F84FF48053BB6007F192
:1011C000080319460C4801F01FFD0346002B01D00F
:1011D00000F082F800233B6000237B603B46194609
:1011E000054801F0F7FE0346002B01D000F074F82B
:1011F00000BF1837BD4680BDCC00002080B586B04A
:1012000000AF07F1080300221A605A609A60DA60A2
:10121000294B9B69284A43F004039361264B9B6941
:1012200003F004037B607B68234B9B69224A43F0F5
:1012300008039361204B9B6903F008033B603B6804
:10124000002240F2FE311D4800F045FF002243F627
:10125000FF711B4800F03FFF40F2FE33BB600123EB
:10126000FB6000233B6102237B6107F10803194601
:10127000124800F09FFD43F6FF73BB600123FB6043
:1012800000233B6102237B6107F1080319460C48E8
:1012900000F090FD4FF4E053BB600023FB6001239E
:1012A0003B6107F108031946044800F083FD00BFC5
:1012B0001837BD4680BD00BF001002400008014045
:1012C000000C014080B582B000AF786000F02EFACB
:1012D00000BF0837BD4680BD80B400AF72B600BF06
:1012E000FEE7000080B485B000AF0346FB71002329
:1012F000FB730023FB735FE0FA79424913465B00FE
:1013000013449B000B4404331A88FB7B3E49CB5C9F
:1013100018463C4903465B0003449B000B440433DE
:101320001B889A4224D2FB7B374AD35C1946354A44
:101330000B465B000B449B00134404331988FA7975
:10134000304813465B0013449B00034404331B885E
:10135000FA7B2D48825C1046CB1A99B2294A034683
:101360005B0003449B00134404330A461A8028E0C0
:10137000FA79244913465B0013449B000B44043361
:101380001988FB7B204AD35C18461E4A03465B0043
:1013900003449B00134404331B88FA79CB1A98B298
:1013A000184913465B0013449B000B440433024668
:1013B0001A80FB7B0133FB73144B1B78FA7B9A4238
:1013C0009AD3124B1B78BB7309E0BB7B5A1EBB7BC5
:1013D0000D49895C0C4AD154BB7B013BBB73BA7B82
:1013E000FB7B9A42F1D8FB7B0749FA79CA54074B39
:1013F0001B780133DAB2054B1A7000BF1437BD46B3
:1014000080BC70471401002004020020C8000020A6
:1014100080B483B000AF264B1B78002B01D114237E
:1014200041E0244B1B78BB71214B1B78012B21D948
:10143000204B5B781946204A0B465B000B449B000F
:10144000134404331988BA791B4813465B001344CC
:101450009B00034404331B88164A527810460B4401
:1014600099B2154A03465B0003449B0013440433BE
:101470000A461A800123FB7109E0FA79FB79013BE6
:101480000C49895C0B4AD154FB790133FB71084B41
:101490001B78FA799A42F0D3054B1B78013BDAB2FC
:1014A000034B1A70BB7918460C37BD4680BC704799
:1014B000C8000020040200201401002080B483B082
:1014C00000AF1C4B00221A700023FB7129E0FA794F
:1014D000194913465B0013449B000B4400221A6019
:1014E000FA79154913465B0013449B000B440433FF
:1014F00000221A80FA79104913465B0013449B00BE
:101500000B44063300221A80FA790B4913465B001C
:1015100013449B000B44083300221A70FB790133FB
:10152000FB71FB79132BD2D900BF00BF0C37BD462E
:1015300080BC7047C80000201401002080B584B032
:1015400000AF78600B467B8013463B800023FB7323
:1015500039E0FA7B204913465B0013449B000B449F
:101560001B68002B2CD1FA7B1B4913465B001344EC
:101570009B000B447A681A60FA7B174913465B009C
:1015800013449B000B4404337A881A80FA7B124977
:1015900013465B0013449B000B4406333A881A80C1
:1015A000FA7B0D4913465B0013449B000B44083340
:1015B00000221A70FB7B1846FFF794FEFB7B06E0C7
:1015C000FB7B0133FB73FB7B132BC2D9142318461F
:1015D0001037BD4680BD00BF1401002080B485B027
:1015E00000AF0346FB71FB79132B00F29480FA796C
:1015F0004B4913465B0013449B000B441B68002BB4
:1016000000F089800023FB730023FB7308E0FB7B61
:10161000444AD35CFA799A4208D0FB7B0133FB73CE
:10162000414B1B78FA7B9A42F1D300E000BF3E4B5E
:101630001B78FA7B9A4246D2FA7B3B4B1B78013BE4
:101640009A4227DAFB7B0133364AD35C1946344A87
:101650000B465B000B449B00134404331A88FB7B4E
:101660003049CB5C18462E4903465B0003449B007F
:101670000B4404331B88F97B01312A48415C134435
:1016800098B2274A0B465B000B449B00134404337B
:1016900002461A80FB7BBB7309E0BB7B5A1CBB7BF9
:1016A0002049895C1F4AD154BB7B0133BB73BA7B91
:1016B0001D4B1B78013B9A42EFDB1B4B1B78013B18
:1016C000DAB2194B1A70FA79154913465B001344C4
:1016D0009B000B4400221A60FA79114913465B0003
:1016E00013449B000B44043300221A80FA790C49FE
:1016F00013465B0013449B000B44063300221A8000
:10170000FA79074913465B0013449B000B440833E6
:1017100000221A7000E000BF1437BD4680BC70473D
:101720001401002004020020C800002080B582B00F
:1017300000AF3D4B1B78002B71D03C4B1B781946FA
:101740003B4A0B465B000B449B00134404331B884D
:10175000002B52D0354B1B781A46354913465B0097
:1017600013449B000B4404331B88013B98B230495F
:1017700013465B0013449B000B44043302461A805B
:101780003BE02A4B1B78FB71FA79294913465B0031
:1017900013449B000B4408331B78FA790133D8B209
:1017A000234913465B0013449B000B440833024655
:1017B0001A70FFF72DFEFA791D4913465B0013449A
:1017C0009B000B4406331B88002B16D0F979FA795D
:1017D00017480B465B000B449B00034406331888F4
:1017E000134913465B0013449B000B440433024629
:1017F0001A80FB791846FFF775FD0B4B1B78002B01
:101800000ED00A4B1B781946094A0B465B000B4465
:101810009B00134404331B88002BB2D000E000BFB0
:101820000837BD4680BD00BFC8000020040200206C
:101830001401002080B582B000AF0023FB713AE0B4
:10184000FA79214913465B0013449B000B4408338B
:101850001B78002B2CD0FA791B4913465B001344EC
:101860009B000B441B689847FA79174913465B00A5
:1018700013449B000B4408331B78FA79013BD8B220
:10188000114913465B0013449B000B440833024686
:101890001A70FA790C4913465B0013449B000B4401
:1018A00006331B88002B03D1FB791846FFF796FE01
:1018B000FB790133FB71FB79132BC1D900BF00BF4A
:1018C0000837BD4680BD00BF1401002080B485B03C
:1018D00000AF154B9B69144A43F001039361124B0F
:1018E0009B6903F00103BB60BB680F4BDB690E4AC9
:1018F00043F08053D3610C4BDB6903F080537B6072
:101900007B680A4B5B68FB60FB6823F0E063FB606D
:10191000FB6843F08063FB60044AFB68536000BFD0
:101920001437BD4680BC70470010024000000140E3
:1019300080B584B000AF78607B681B68B3F1804FDE
:1019400013D10C4BDB690B4A43F00103D361094B04
:10195000DB6903F00103FB60FB68002200211C200F
:1019600000F0F1F91C2000F00AFA00BF1037BD4664
:1019700080BD00BF0010024080B400AFFEE780B41D
:1019800000AFFEE780B400AFFEE780B400AFFEE733
:1019900080B400AFFEE780B400AF00BFBD4680BC9E
:1019A000704780B400AF00BFBD4680BC704780B4B4
:1019B00000AF00BFBD4680BC704780B500AF00F0EF
:1019C000CFF800BF80BD000080B500AF024801F035
:1019D0002BF800BF80BD00BFCC00002080B400AF5A
:1019E00000BFBD4680BC704780B483B000AF786054
:1019F00039603B68094A82FB03129210DB17D21A46
:101A000007497B6841F82320064A7B68002142F899
:101A1000231000BF0C37BD4680BC70476766666602
:101A2000180200202402002080B483B000AF0023FD
:101A30007B601CE0124A7B6852F82330002B13DDD8
:101A40000F4A7B6852F823305A1E0D497B6841F8D3
:101A500023200B4A7B6852F82330002B04DC094A10
:101A60007B68012142F823107B6801337B607B682F
:101A7000022BDFDD00BF00BF0C37BD4680BC7047C6
:101A80001802002024020020FFF7A8FF0B480C4991
:101A90000C4A002302E0D458C4500433C4188C42CA
:101AA000F9D3094A094C002301E013600432A24231
:101AB000FBD301F0F9FAFFF7E1FA704700000020CC
:101AC000740000208C3200087400002034020020D2
:101AD000FEE7000080B500AF084B1B68074A43F0E3
:101AE00010031360032000F023F90F2000F008F822
:101AF000FFF7ECFE0023184680BD00BF0020024027
:101B000080B582B000AF7860124B1A68124B1B7818
:101B100019464FF47A73B3FBF1F3B2FBF3F31846B3
:101B200000F03BF90346002B01D001230EE07B6857
:101B30000F2B0AD8002279684FF0FF3000F003F92C
:101B4000064A7B681360002300E00123184608372B
:101B5000BD4680BD68000020700000206C000020A1
:101B600080B400AF054B1B781A46054B1B68134425
:101B7000034A136000BFBD4680BC70477000002060
:101B80003002002080B400AF024B1B681846BD46EF
:101B900080BC70473002002080B485B000AF786010
:101BA0007B6803F00703FB600C4BDB68BB60BA6823
:101BB0004FF6FF031340BB60FB681A02BB68134378
:101BC00043F0BF6343F40033BB60044ABB68D36097
:101BD00000BF1437BD4680BC704700BF00ED00E079
:101BE00080B400AF044BDB681B0A03F00703184600
:101BF000BD4680BC704700BF00ED00E080B483B0FC
:101C000000AF0346FB7197F90730002B0BDBFB7924
:101C100003F01F02064997F907305B09012000FA1B
:101C200002F241F8232000BF0C37BD4680BC70474C
:101C300000E100E080B483B000AF03463960FB717F
:101C400097F90730002B0ADB3B68DAB20C4997F9A9
:101C500007301201D2B20B4483F800230AE03B683C
:101C6000DAB20849FB7903F00F03043B1201D2B248
:101C70000B441A7600BF0C37BD4680BC704700BFCE
:101C800000E100E000ED00E080B489B000AFF86052
:101C9000B9607A60FB6803F00703FB61FB69C3F17D
:101CA0000703042B28BF0423BB61FB690433062B05
:101CB00002D9FB69033B00E000237B614FF0FF3258
:101CC000BB6902FA03F3DA43BB681A407B699A40A6
:101CD0004FF0FF317B6901FA03F3D9437B680B4076
:101CE000134318462437BD4680BC704780B582B088
:101CF00000AF78607B68013BB3F1807F01D30123A3
:101D00000FE00A4A7B68013B53600F214FF0FF3020
:101D1000FFF790FF054B00229A60044B07221A60E0
:101D2000002318460837BD4680BD00BF10E000E024
:101D300080B582B000AF78607868FFF72DFF00BFF4
:101D40000837BD4680BD80B586B000AF0346B96098
:101D50007A60FB7300237B61FFF742FF78617A684A
:101D6000B9687869FFF790FF024697F90F3011467E
:101D70001846FFF75FFF00BF1837BD4680BD80B52E
:101D800082B000AF0346FB7197F907301846FFF7A2
:101D900035FF00BF0837BD4680BD80B582B000AFBB
:101DA00078607868FFF7A2FF034618460837BD46FB
:101DB00080BD000080B48BB000AF78603960002334
:101DC0007B6200233B6248E101227B6A02FA03F353
:101DD000FB613B681B68FA691340BB61BA69FB6928
:101DE0009A4240F037813B685B68A34A93425ED0D9
:101DF000A14A934275D8A14A934258D09F4A934230
:101E00006FD89F4A934252D09D4A934269D89D4AC7
:101E100093424CD09B4A934263D89B4A934246D00C
:101E2000994A93425DD8122B2AD8122B59D801A275
:101E300052F823F0AF1E0008891E00089B1E000800
:101E4000DD1E0008E31E0008E31E0008E31E000874
:101E5000E31E0008E31E0008E31E0008E31E00085E
:101E6000E31E0008E31E0008E31E0008E31E00084E
:101E7000E31E0008E31E0008911E0008A51E0008CE
:101E8000824A934213D02CE03B68DB683B6229E036
:101E90003B68DB6804333B6224E03B68DB68083363
:101EA0003B621FE03B68DB680C333B621AE03B6837
:101EB0009B68002B02D104233B6213E03B689B68C4
:101EC000012B05D108233B627B68FA691A6109E09E
:101ED00008233B627B68FA695A6103E000233B6296
:101EE00000E000BFBB69FF2B01D87B6801E07B6885
:101EF00004337B61BB69FF2B02D87B6A9B0002E045
:101F00007B6A083B9B003B617B691A680F213B6938
:101F100001FA03F3DB431A40396A3B6901FA03F320
:101F20001A437B691A603B685B6803F08053002B9F
:101F300000F09080564B9B69554A43F00103936132
:101F4000534B9B6903F00103BB60BB68514A7B6A3A
:101F50009B08023352F82330FB607B6A03F00303D3
:101F60009B000F2202FA03F3DB43FA681340FB6085
:101F70007B68494A93420DD07B68484A934207D018
:101F80007B68474A934201D1022304E0032302E025
:101F9000012300E000237A6A02F0030292009340DA
:101FA000FA681343FB603B497B6A9B080233FA687B
:101FB00041F823203B685B6803F48013002B06D0B4
:101FC000384B9A683749BB6913438B6006E0354B41
:101FD0009A68BB69DB43334913408B603B685B689D
:101FE00003F40013002B06D02E4BDA682D49BB6991
:101FF0001343CB6006E02B4BDA68BB69DB4329490E
:102000001340CB603B685B6803F40033002B06D0C1
:10201000244B5A682349BB6913434B6006E0214BAC
:102020005A68BB69DB431F4913404B603B685B68E0
:1020300003F48033002B06D01A4B1A681949BB6988
:1020400013430B6006E0174B1A68BB69DB43154965
:1020500013400B607B6A01337B623B681A687B6AC2
:1020600022FA03F3002B7FF4AFAE00BF00BF2C3782
:10207000BD4680BC704700BF000032100000311028
:1020800000002210000021100000121000001110AA
:10209000001002400000014000080140000C014017
:1020A000001001400004014080B485B000AF7860AA
:1020B0000B467B807B689A687B881340002B02D09C
:1020C0000123FB7301E00023FB73FB7B18461437ED
:1020D000BD4680BC704780B483B000AF78600B46CB
:1020E0007B8013467B707B78002B03D07A887B68DB
:1020F0001A6103E07B881A047B681A6100BF0C3701
:10210000BD4680BC704780B485B000AF78600B4698
:102110007B807B68DB68FB607A88FB6813401A046D
:10212000FB68D9437B880B401A437B681A6100BF68
:102130001437BD4680BC704780B586B000AF78606C
:102140007B68002B01D101236CE27B681B6803F0E4
:102150000103002B00F08780924B5B6803F00C03B7
:10216000042B0CD08F4B5B6803F00C03082B12D1AF
:102170008C4B5B6803F48033B3F5803F0BD1894B04
:102180001B6803F40033002B6CD07B685B68002B6A
:1021900068D1012346E27B685B68B3F5803F06D1D6
:1021A000804B1B687F4A43F4803313602EE07B68CA
:1021B0005B68002B0CD17B4B1B687A4A23F480337D
:1021C0001360784B1B68774A23F4802313601DE06B
:1021D0007B685B68B3F5A02F0CD1724B1B68714A0A
:1021E00043F4802313606F4B1B686E4A43F48033C3
:1021F00013600BE06B4B1B686A4A23F48033136057
:10220000684B1B68674A23F4802313607B685B6814
:10221000002B13D0FFF7B6FC386108E0FFF7B2FCE3
:1022200002463B69D31A642B01D90323FAE15D4BC3
:102230001B6803F40033002BF0D014E0FFF7A2FC7E
:10224000386108E0FFF79EFC02463B69D31A642B15
:1022500001D90323E6E1534B1B6803F40033002B41
:10226000F0D100E000BF7B681B6803F00203002B85
:1022700063D04C4B5B6803F00C03002B0BD0494B35
:102280005B6803F00C03082B1CD1464B5B6803F41E
:102290008033002B16D1434B1B6803F00203002B45
:1022A00005D07B681B69012B01D00123BAE13D4BAE
:1022B0001B6823F0F8027B685B69DB003949134334
:1022C0000B603AE07B681B69002B20D0364B012263
:1022D0001A60FFF757FC386108E0FFF753FC02462D
:1022E0003B69D31A022B01D903239BE12D4B1B68B9
:1022F00003F00203002BF0D02A4B1B6823F0F802F6
:102300007B685B69DB00274913430B6015E0264BB4
:1023100000221A60FFF736FC386108E0FFF732FC54
:1023200002463B69D31A022B01D903237AE11D4BE4
:102330001B6803F00203002BF0D17B681B6803F0DD
:102340000803002B3AD07B689B69002B19D0174BF0
:1023500001221A60FFF716FC386108E0FFF712FC53
:1023600002463B69D31A022B01D903235AE10D4BD4
:102370005B6A03F00203002BF0D0012000F09AFA10
:102380001CE00A4B00221A60FFF7FCFB38610FE0EB
:10239000FFF7F8FB02463B69D31A022B08D9032347
:1023A00040E100BF0010024000004242800442426F
:1023B0009E4B5B6A03F00203002BE9D17B681B682C
:1023C00003F00403002B00F0A6800023FB75974B5D
:1023D000DB6903F08053002B0DD1944BDB69934AEA
:1023E00043F08053D361914BDB6903F08053BB60B2
:1023F000BB680123FB758E4B1B6803F48073002BB5
:1024000018D18B4B1B688A4A43F480731360FFF723
:10241000B9FB386108E0FFF7B5FB02463B69D31A08
:10242000642B01D90323FDE0814B1B6803F4807307
:10243000002BF0D07B68DB68012B06D17B4B1B6A3D
:102440007A4A43F0010313622DE07B68DB68002BBE
:102450000CD1764B1B6A754A23F001031362734B50
:102460001B6A724A23F0040313621CE07B68DB687A
:10247000052B0CD16D4B1B6A6C4A43F004031362AD
:102480006A4B1B6A694A43F0010313620BE0674B16
:102490001B6A664A23F001031362644B1B6A634A9A
:1024A00023F0040313627B68DB68002B15D0FFF771
:1024B00069FB38610AE0FFF765FB02463B69D31A06
:1024C00041F28832934201D90323ABE0574B1B6A98
:1024D00003F00203002BEED014E0FFF753FB38614A
:1024E0000AE0FFF74FFB02463B69D31A41F28832FC
:1024F000934201D9032395E04C4B1B6A03F002037E
:10250000002BEED1FB7D012B05D1484BDB69474AFF
:1025100023F08053D3617B68DB69002B00F081805E
:10252000424B5B6803F00C03082B61D07B68DB69CE
:10253000022B46D13F4B00221A60FFF723FB386184
:1025400008E0FFF71FFB02463B69D31A022B01D9B3
:10255000032367E0354B1B6803F00073002BF0D1B9
:102560007B681B6AB3F5803F08D1304B5B6823F46E
:1025700000327B689B682D4913434B602B4B5B6893
:1025800023F474127B68196A7B685B6A0B432749E2
:1025900013434B60274B01221A60FFF7F3FA3861AF
:1025A00008E0FFF7EFFA02463B69D31A022B01D984
:1025B000032337E01D4B1B6803F00073002BF0D0A2
:1025C0002FE01C4B00221A60FFF7DCFA386108E0AC
:1025D000FFF7D8FA02463B69D31A022B01D903232D
:1025E00020E0124B1B6803F00073002BF0D118E0C1
:1025F0007B68DB69012B01D1012313E00B4B5B6886
:10260000FB60FB6803F480327B681B6A9A4206D148
:10261000FB6803F470127B685B6A9A4201D0012365
:1026200000E0002318461837BD4680BD0010024068
:10263000007000406000424280B584B000AF786016
:1026400039607B68002B01D10123D0E06A4B1B6805
:1026500003F007033A689A4210D9674B1B6823F0CE
:10266000070265493B6813430B60634B1B6803F02B
:1026700007033A689A4201D00123B8E07B681B68DF
:1026800003F00203002B20D07B681B6803F00403D7
:10269000002B05D0594B5B68584A43F4E063536004
:1026A0007B681B6803F00803002B05D0534B5B6865
:1026B000524A43F460535360504B5B6823F0F0027E
:1026C0007B689B684D4913434B607B681B6803F034
:1026D0000103002B40D07B685B68012B07D1474B7F
:1026E0001B6803F40033002B15D101237FE07B68C6
:1026F0005B68022B07D1414B1B6803F00073002B72
:1027000009D1012373E03D4B1B6803F00203002B4A
:1027100001D101236BE0394B5B6823F003027B6836
:102720005B68364913434B60FFF72CFAF8600AE008
:10273000FFF728FA0246FB68D31A41F28832934227
:1027400001D9032353E02D4B5B6803F00C027B6837
:102750005B689B009A42EBD1274B1B6803F0070391
:102760003A689A4210D2244B1B6823F00702224990
:102770003B6813430B60204B1B6803F007033A6868
:102780009A4201D0012332E07B681B6803F0040306
:10279000002B08D0194B5B6823F4E0627B68DB6890
:1027A000164913434B607B681B6803F00803002B3A
:1027B00009D0124B5B6823F460527B681B69DB0015
:1027C0000E4913434B6000F021F802460B4B5B6847
:1027D0001B0903F00F030A49CB5C22FA03F3094AF1
:1027E0001360094B1B681846FFF78AF90023184647
:1027F0001037BD4680BD00BF0020024000100240DF
:1028000060320008680000206C00002080B487B0AF
:1028100000AF0023FB600023BB6000237B6100232B
:102820007B6000233B611E4B5B68FB60FB6803F031
:102830000C03042B02D0082B03D027E0194B3B617B
:1028400027E0FB689B0C03F00F03174AD35C7B6007
:10285000FB6803F48033002B10D0114B5B685B0CDA
:1028600003F00103114AD35CBB607B680D4A02FB95
:1028700003F2BB68B2FBF3F37B6104E07B680C4AB4
:1028800002FB03F37B617B693B6102E0054B3B612B
:1028900000BF3B6918461C37BD4680BC704700BF6F
:1028A0000010024000127A007032000880320008E6
:1028B00000093D0080B485B000AF78600A4B1B680A
:1028C0000A4AA2FB03235B0A7A6802FB03F3FB605C
:1028D00000BFFB685A1EFA60002BF9D100BF00BF91
:1028E0001437BD4680BC704768000020D34D62108D
:1028F00080B582B000AF78607B68002B01D10123E6
:1029000041E07B6893F83D30DBB2002B06D17B6859
:10291000002283F83C207868FFF70AF87B680222DF
:1029200083F83D207B681A687B680433194610469B
:1029300000F056FA7B68012283F846207B6801226A
:1029400083F83E207B68012283F83F207B680122C8
:1029500083F840207B68012283F841207B680122B4
:1029600083F842207B68012283F843207B680122A0
:1029700083F844207B68012283F845207B6801228C
:1029800083F83D20002318460837BD4680BD00006F
:1029900080B485B000AF78607B6893F83D30DBB2DF
:1029A000012B01D0012335E07B68022283F83D2012
:1029B0007B681B68DA687B681B6842F00102DA609A
:1029C0007B681B68164A934209D07B681B68B3F189
:1029D000804F04D07B681B68124A934211D17B68F8
:1029E0001B689B6803F00703FB60FB68062B10D095
:1029F0007B681B681A687B681B6842F001021A60DA
:102A000007E07B681B681A687B681B6842F001025C
:102A10001A60002318461437BD4680BC704700BFBB
:102A2000002C01400004004080B584B000AF786005
:102A30007B681B68DB68FB607B681B681B69BB608D
:102A4000BB6803F00203002B20D0FB6803F00203F5
:102A5000002B1BD07B681B686FF002021A617B6839
:102A600001221A777B681B689B6903F00303002B24
:102A700003D0786800F098F905E0786800F08BF9E9
:102A8000786800F09AF97B6800221A77BB6803F037
:102A90000403002B20D0FB6803F00403002B1BD0A1
:102AA0007B681B686FF004021A617B6802221A7748
:102AB0007B681B689B6903F44073002B03D0786824
:102AC00000F072F905E0786800F065F9786800F0C8
:102AD00074F97B6800221A77BB6803F00803002BA7
:102AE00020D0FB6803F00803002B1BD07B681B6819
:102AF0006FF008021A617B6804221A777B681B68F2
:102B0000DB6903F00303002B03D0786800F04CF975
:102B100005E0786800F03FF9786800F04EF97B68CE
:102B200000221A77BB6803F01003002B20D0FB684B
:102B300003F01003002B1BD07B681B686FF01002A2
:102B40001A617B6808221A777B681B68DB6903F4CB
:102B50004073002B03D0786800F026F905E0786810
:102B600000F019F9786800F028F97B6800221A77DC
:102B7000BB6803F00103002B0CD0FB6803F00103DA
:102B8000002B07D07B681B686FF001021A61786820
:102B9000FEF798FBBB6803F08003002B0CD0FB68AA
:102BA00003F08003002B07D07B681B686FF0800266
:102BB0001A61786800F06FFABB6803F04003002BDD
:102BC0000CD0FB6803F04003002B07D07B681B6828
:102BD0006FF040021A61786800F0F8F8BB6803F003
:102BE0002003002B0CD0FB6803F02003002B07D040
:102BF0007B681B686FF020021A61786800F042FA67
:102C000000BF1037BD4680BD80B584B000AF78608E
:102C100039600023FB737B6893F83C30012B01D1B2
:102C20000223B4E07B68012283F83C207B68022207
:102C300083F83D207B681B689B68BB60BB6823F002
:102C40007703BB60BB6823F47F43BB607B681B6872
:102C5000BA689A603B681B68B3F5005F3ED0B3F575
:102C6000005F00F28780B3F5805F00F08680B3F5E7
:102C7000805F7FD8702B1AD0702B7BD8602B50D000
:102C8000602B77D8502B3CD0502B73D8402B58D08A
:102C9000402B6FD8302B64D0302B6BD8202B60D0DA
:102CA000202B67D8002B5CD0102B5AD062E07B68B9
:102CB00018683B6899683B685A683B68DB6800F0B5
:102CC0006AF97B681B689B68BB60BB6843F077034D
:102CD000BB607B681B68BA689A604FE07B681868C5
:102CE0003B6899683B685A683B68DB6800F053F9B9
:102CF0007B681B689A687B681B6842F480429A6014
:102D00003CE07B6818683B6859683B68DB681A469A
:102D100000F0CAF87B681B685021184600F021F9C2
:102D20002CE07B6818683B6859683B68DB681A468A
:102D300000F0E8F87B681B686021184600F011F984
:102D40001CE07B6818683B6859683B68DB681A467A
:102D500000F0AAF87B681B684021184600F001F9D2
:102D60000CE07B681A683B681B681946104600F047
:102D7000F8F803E00123FB7300E000BF7B68012249
:102D800083F83D207B68002283F83C20FB7B1846BB
:102D90001037BD4680BD80B483B000AF786000BFFF
:102DA0000C37BD4680BC704780B483B000AF7860FC
:102DB00000BF0C37BD4680BC704780B483B000AF05
:102DC000786000BF0C37BD4680BC704780B483B0CC
:102DD00000AF786000BF0C37BD4680BC7047000074
:102DE00080B485B000AF786039607B681B68FB6099
:102DF0007B682B4A934207D07B68B3F1804F03D0A6
:102E00007B68284A934208D1FB6823F07003FB607B
:102E10003B685B68FA681343FB607B68204A934217
:102E200007D07B68B3F1804F03D07B681D4A934283
:102E300008D1FB6823F44073FB603B68DB68FA68E9
:102E40001343FB60FB6823F080023B685B6913431C
:102E5000FB607B68FA681A603B689A687B68DA6294
:102E60003B681A687B689A627B680D4A934203D17B
:102E70003B681A697B681A637B6801225A617B6828
:102E80001B6903F00103002B05D07B681B6923F04D
:102E900001027B681A6100BF1437BD4680BC7047D1
:102EA000002C01400004004080B487B000AFF860FF
:102EB000B9607A60FB681B6A7B61FB681B6A23F060
:102EC0000102FB681A62FB689B693B613B6923F066
:102ED000F0033B617B681B013A6913433B617B69EB
:102EE00023F00A037B617A69BB6813437B61FB684B
:102EF0003A699A61FB687A691A6200BF1C37BD465D
:102F000080BC704780B487B000AFF860B9607A6069
:102F1000FB681B6A7B61FB681B6A23F01002FB687D
:102F20001A62FB689B693B613B6923F470433B6118
:102F30007B681B033A6913433B617B6923F0A00361
:102F40007B61BB681B017A6913437B61FB683A694B
:102F50009A61FB687A691A6200BF1C37BD4680BC63
:102F6000704780B485B000AF786039607B689B683B
:102F7000FB60FB6823F07003FB603A68FB68134357
:102F800043F00703FB607B68FA689A6000BF143760
:102F9000BD4680BC704780B487B000AFF860B960B0
:102FA0007A603B60FB689B687B617B6923F47F43AD
:102FB0007B613B681A027B681A43BB6813437A69DA
:102FC00013437B61FB687A699A6000BF1C37BD467A
:102FD00080BC704780B485B000AF786039607B6892
:102FE00093F83C30012B01D1022341E07B680122A0
:102FF00083F83C207B68022283F83D207B681B68B5
:103000005B68FB607B681B689B68BB60FB6823F0A8
:103010007003FB603B681B68FA681343FB607B68C6
:103020001B68FA685A607B681B68144A934209D08F
:103030007B681B68B3F1804F04D07B681B68104A23
:1030400093420CD1BB6823F08003BB603B685B6894
:10305000BA681343BB607B681B68BA689A607B6878
:10306000012283F83D207B68002283F83C20002366
:1030700018461437BD4680BC704700BF002C014085
:103080000004004080B483B000AF786000BF0C370C
:10309000BD4680BC704780B483B000AF786000BF8D
:1030A0000C37BD4680BC704770B500260C4D0D4CEA
:1030B000641BA410A64209D100F0A2F800260A4D14
:1030C0000A4C641BA410A64205D170BD55F8043B00
:1030D00098470136EEE755F8043B98470136F2E78A
:1030E00084320008843200088432000888320008E4
:1030F00003460244934200D1704703F8011BF9E7ED
:103100002DE9F843C1F30A58A8F2FF36132E024600
:103110000B4607460C46054631DC002E12DA34A376
:10312000D3E90023FDF744F900220023FDF774FBE7
:1031300028B1002C56DB3C4358D000252E4C2346AA
:103140002F4625E02D4A42FA06F801EA080202431A
:103150001ED027A3D3E90023FDF72AF9002200237C
:10316000FDF75AFB0028EAD0002CC2BF4FF48013B1
:1031700043FA06F6A419002524EA0804DFE7332EF3
:103180000ADDB6F5806F03D1FDF712F907460B464D
:1031900038461946BDE8F8834FF0FF32A8F21348CD
:1031A00022FA08F818EA000FF2D011A3D3E900239D
:1031B000FDF7FEF800220023FDF72EFB0028BED00D
:1031C000002C02DD142E03D1013425EA0805B6E7F0
:1031D0000123C6F1340603FA06F63544BD4238BF72
:1031E000E418F2E700254FF00044A8E72546A6E7DB
:1031F0009C7500883CE4377E0000F03FFFFF0F0025
:10320000F8B500BFF8BC08BC9E467047F8B500BFD3
:08321000F8BC08BC9E467047A3
:1032180000000000000001010000010101010000A0
:103228000100000100000000000101000100000190
:103238000100000001000001000000010000000082
:103248000000000001010101000000000000000072
:103258000000000100000000000000000000000065
:103268000102030406070809020304050607080902
:0C3278000A0B0C0D0E0F101001020000DC
:043284003501000808
:043288001101000828
:10328C0001000200040008001000200040000000B3
:10329C008000000100020004000800100020000063
:1032AC00010000000100000001000000010000000E
:1032BC0001000000010000000100000001000000FE
:1032CC0001000000010000000100000001000000EE
:1032DC000008014000040008001000000500000078
:1032EC00030000000200000000127A001000000031
:0432FC0001000000CD
:0400000508001A894C
:00000001FF
